S0120000454B4A4D6F64756C65732E737265635F
S11300000C9434000C9451000C9451000C94510045
S11300100C9451000C9451000C9451000C94510018
S11300200C9451000C9451000C9451000C94510008
S11300300C9451000C9451000C9451000C945100F8
S11300400C9451000C9451000C9451000C945100E8
S11300500C9451000C9451000C9451000C945100D8
S11300600C9451000C94510011241FBECFEFD8E022
S1130070DEBFCDBF11E0A0E0B1E0E8EEF3E002C0E6
S113008005900D92A630B107D9F721E0A6E0B1E0C2
S113009001C01D92AA30B207E1F70E94B6000C9489
S11300A0F2010C9400001F93CF93DF93EC01162F01
S11300B087E090E00E94D100FC01D383C283CE018B
S11300C00197918380832297D583C4831683CF01BC
S11300D0DF91CF911F910895CF93DF93FC01A0810D
S11300E0B181C081D1818881968121E030E002C054
S11300F0220F331F9A95E2F7968170E002C0660FD3
S1130100771F9A95E2F720952823622B6C93DF9151
S1130110CF910895CF93DF93FC01A281B381C28173
S1130120D3818881968121E030E002C0220F331F01
S11301309A95E2F7968170E002C0660F771F9A9550
S1130140E2F720952823622B6C93DF91CF910895D9
S1130150FC01A281B3819C912681892F90E002C089
S1130160959587952A95E2F78170089560E085E278
S113017090E00E945300EC0161E00E946C002FEFBC
S113018081EE94E0215080409040E1F700C00000EF
S1130190CE010E94A80061E06827CE010E948A0077
S11301A0EECF0F931F93CF93DF938230910510F41A
S11301B082E090E0E0910801F091090120E030E054
S11301C0A0E0B0E0309719F14081518102811381A0
S11301D048175907C8F08417950769F4109731F048
S11301E012960C93129713961C9327C00093080140
S11301F01093090122C02115310519F04217530744
S113020018F49A01BD01EF01DF01F801DBCF2115DC
S11302103105F9F0281B390B2430310580F48A812B
S11302209B816115710521F0FB019383828304C0D6
S11302309093090180930801FE01329644C0FE01A7
S1130240E20FF31F8193919322503109398328835C
S11302503AC02091060130910701232B41F42091EB
S1130260020130910301309307012093060120918C
S11302700001309101012115310541F42DB73EB73C
S11302804091040150910501241B350BE0910601B6
S1130290F0910701E217F307A0F42E1B3F0B281778
S11302A0390778F0AC014E5F5F4F2417350748F0EB
S11302B04E0F5F1F50930701409306018193919362
S11302C002C0E0E0F0E0CF01DF91CF911F910F91E8
S11302D00895CF93DF93009709F481C0FC0132970E
S11302E013821282A0910801B0910901109781F440
S11302F020813181820F931F2091060130910701E3
S11303002817390751F5F0930701E093060167C0F8
S1130310ED0120E030E0CE17DF0740F44A815B8135
S11303209E0141155105F1F0EA01F5CFD383C28353
S113033040815181840F951FC817D90759F48881CA
S11303409981840F951F0296918380838A819B8172
S1130350938382832115310529F4F0930901E093F5
S113036008013DC0E901FB83EA8349915991C40F17
S1130370D51FEC17FD0761F480819181840F951FCF
S11303800296E90199838883828193819B838A837E
S1130390E0E0F0E012968D919C911397009719F08C
S11303A0FD01DC01F7CF8D919C9111979D012E5F8A
S11303B03F4F820F931F20910601309107012817A8
S11303C0390769F4309729F4109209011092080151
S11303D002C013821282B0930701A0930601DF9139
S10B03E0CF910895F894FFCFBA
S10903E800000A012000E0
S9030000FC
